{
  "_format": "hh-sol-artifact-1",
  "contractName": "Lottery",
  "sourceName": "contracts/StructifiedLottery.sol",
  "abi": [
    {
      "inputs": [],
      "stateMutability": "nonpayable",
      "type": "constructor"
    },
    {
      "inputs": [],
      "name": "enter",
      "outputs": [],
      "stateMutability": "payable",
      "type": "function"
    },
    {
      "inputs": [],
      "name": "getPlayers",
      "outputs": [
        {
          "components": [
            {
              "internalType": "address payable",
              "name": "player",
              "type": "address"
            }
          ],
          "internalType": "struct Lottery.PlayerStruct[]",
          "name": "",
          "type": "tuple[]"
        }
      ],
      "stateMutability": "view",
      "type": "function"
    },
    {
      "inputs": [],
      "name": "manager",
      "outputs": [
        {
          "internalType": "address",
          "name": "",
          "type": "address"
        }
      ],
      "stateMutability": "view",
      "type": "function"
    },
    {
      "inputs": [
        {
          "internalType": "uint256",
          "name": "",
          "type": "uint256"
        }
      ],
      "name": "players",
      "outputs": [
        {
          "internalType": "address payable",
          "name": "player",
          "type": "address"
        }
      ],
      "stateMutability": "view",
      "type": "function"
    }
  ],
  "bytecode": "0x608060405234801561001057600080fd5b50336000806101000a81548173ffffffffffffffffffffffffffffffffffffffff021916908373ffffffffffffffffffffffffffffffffffffffff1602179055506104d3806100606000396000f3fe60806040526004361061003f5760003560e01c8063481c6a75146100445780638b5b9ccc1461006f578063e97dcb621461009a578063f71d96cb146100a4575b600080fd5b34801561005057600080fd5b506100596100e1565b60405161006691906103a7565b60405180910390f35b34801561007b57600080fd5b50610084610105565b60405161009191906103dd565b60405180910390f35b6100a26101b6565b005b3480156100b057600080fd5b506100cb60048036038101906100c691906102bf565b610260565b6040516100d891906103c2565b60405180910390f35b60008054906101000a900473ffffffffffffffffffffffffffffffffffffffff1681565b60606001805480602002602001604051908101604052809291908181526020016000905b828210156101ad578382906000526020600020016040518060200160405290816000820160009054906101000a900473ffffffffffffffffffffffffffffffffffffffff1673ffffffffffffffffffffffffffffffffffffffff1673ffffffffffffffffffffffffffffffffffffffff168152505081526020019060010190610129565b50505050905090565b662386f26fc1000034116101c957600080fd5b600160405180602001604052803373ffffffffffffffffffffffffffffffffffffffff168152509080600181540180825580915050600190039060005260206000200160009091909190915060008201518160000160006101000a81548173ffffffffffffffffffffffffffffffffffffffff021916908373ffffffffffffffffffffffffffffffffffffffff1602179055505050565b6001818154811061027057600080fd5b906000526020600020016000915090508060000160009054906101000a900473ffffffffffffffffffffffffffffffffffffffff16905081565b6000813590506102b981610486565b92915050565b6000602082840312156102d157600080fd5b60006102df848285016102aa565b91505092915050565b60006102f4838361038b565b60208301905092915050565b6103098161044a565b82525050565b6103188161044a565b82525050565b61032781610438565b82525050565b60006103388261040f565b6103428185610427565b935061034d836103ff565b8060005b8381101561037e57815161036588826102e8565b97506103708361041a565b925050600181019050610351565b5085935050505092915050565b6020820160008201516103a16000850182610300565b50505050565b60006020820190506103bc600083018461031e565b92915050565b60006020820190506103d7600083018461030f565b92915050565b600060208201905081810360008301526103f7818461032d565b905092915050565b6000819050602082019050919050565b600081519050919050565b6000602082019050919050565b600082825260208201905092915050565b60006104438261045c565b9050919050565b60006104558261045c565b9050919050565b600073ffffffffffffffffffffffffffffffffffffffff82169050919050565b6000819050919050565b61048f8161047c565b811461049a57600080fd5b5056fea2646970667358221220ca8ee068b1dcba5e276459d896135e25e950480a928019a33cc5a6a09c0db41664736f6c63430008040033",
  "linkReferences": {},
  "deployedLinkReferences": {}
}