{
  "_format": "hh-sol-artifact-1",
  "contractName": "Lottery",
  "sourceName": "contracts/Lottery.sol",
  "abi": [
    {
      "inputs": [],
      "stateMutability": "nonpayable",
      "type": "constructor"
    },
    {
      "inputs": [],
      "name": "enter",
      "outputs": [],
      "stateMutability": "payable",
      "type": "function"
    },
    {
      "inputs": [],
      "name": "manager",
      "outputs": [
        {
          "internalType": "address",
          "name": "",
          "type": "address"
        }
      ],
      "stateMutability": "view",
      "type": "function"
    },
    {
      "inputs": [],
      "name": "pickWinner",
      "outputs": [],
      "stateMutability": "nonpayable",
      "type": "function"
    },
    {
      "inputs": [
        {
          "internalType": "uint256",
          "name": "",
          "type": "uint256"
        }
      ],
      "name": "players",
      "outputs": [
        {
          "internalType": "address payable",
          "name": "",
          "type": "address"
        }
      ],
      "stateMutability": "view",
      "type": "function"
    }
  ],
  "bytecode": "0x608060405234801561001057600080fd5b50336000806101000a81548173ffffffffffffffffffffffffffffffffffffffff021916908373ffffffffffffffffffffffffffffffffffffffff160217905550610732806100606000396000f3fe60806040526004361061003f5760003560e01c8063481c6a75146100445780635d495aea1461006f578063e97dcb6214610086578063f71d96cb14610090575b600080fd5b34801561005057600080fd5b506100596100cd565b6040516100669190610565565b60405180910390f35b34801561007b57600080fd5b506100846100f1565b005b61008e610299565b005b34801561009c57600080fd5b506100b760048036038101906100b29190610442565b610311565b6040516100c49190610580565b60405180910390f35b60008054906101000a900473ffffffffffffffffffffffffffffffffffffffff1681565b60008054906101000a900473ffffffffffffffffffffffffffffffffffffffff1673ffffffffffffffffffffffffffffffffffffffff163373ffffffffffffffffffffffffffffffffffffffff161461014957600080fd5b6000600180549050610159610350565b6101639190610665565b90506001818154811061019f577f4e487b7100000000000000000000000000000000000000000000000000000000600052603260045260246000fd5b9060005260206000200160009054906101000a900473ffffffffffffffffffffffffffffffffffffffff1673ffffffffffffffffffffffffffffffffffffffff166108fc479081150290604051600060405180830381858888f1935050505015801561020f573d6000803e3d6000fd5b50600067ffffffffffffffff811115610251577f4e487b7100000000000000000000000000000000000000000000000000000000600052604160045260246000fd5b60405190808252806020026020018201604052801561027f5781602001602082028036833780820191505090505b5060019080519060200190610295929190610386565b5050565b662386f26fc1000034116102ac57600080fd5b6001339080600181540180825580915050600190039060005260206000200160009091909190916101000a81548173ffffffffffffffffffffffffffffffffffffffff021916908373ffffffffffffffffffffffffffffffffffffffff160217905550565b6001818154811061032157600080fd5b906000526020600020016000915054906101000a900473ffffffffffffffffffffffffffffffffffffffff1681565b6000444260016040516020016103689392919061052c565b6040516020818303038152906040528051906020012060001c905090565b8280548282559060005260206000209081019282156103ff579160200282015b828111156103fe5782518260006101000a81548173ffffffffffffffffffffffffffffffffffffffff021916908373ffffffffffffffffffffffffffffffffffffffff160217905550916020019190600101906103a6565b5b50905061040c9190610410565b5090565b5b80821115610429576000816000905550600101610411565b5090565b60008135905061043c816106e5565b92915050565b60006020828403121561045457600080fd5b60006104628482850161042d565b91505092915050565b60006104778383610492565b60208301905092915050565b61048c81610605565b82525050565b61049b81610605565b82525050565b6104aa816105f3565b82525050565b60006104bb826105b0565b6104c581856105c8565b93506104d08361059b565b8060005b83811015610508576104e5826106c5565b6104ef888261046b565b97506104fa836105bb565b9250506001810190506104d4565b5085935050505092915050565b61052661052182610637565b61065b565b82525050565b60006105388286610515565b6020820191506105488285610515565b60208201915061055882846104b0565b9150819050949350505050565b600060208201905061057a60008301846104a1565b92915050565b60006020820190506105956000830184610483565b92915050565b60008190508160005260206000209050919050565b600081549050919050565b6000600182019050919050565b600081905092915050565b600073ffffffffffffffffffffffffffffffffffffffff82169050919050565b60006105fe82610617565b9050919050565b600061061082610617565b9050919050565b600073ffffffffffffffffffffffffffffffffffffffff82169050919050565b6000819050919050565b600061065461064f836106d8565b6105d3565b9050919050565b6000819050919050565b600061067082610637565b915061067b83610637565b92508261068b5761068a610696565b5b828206905092915050565b7f4e487b7100000000000000000000000000000000000000000000000000000000600052601260045260246000fd5b60006106d18254610641565b9050919050565b60008160001c9050919050565b6106ee81610637565b81146106f957600080fd5b5056fea2646970667358221220da3f2c5181d1badc3340e939ffdfa2bced49f19424b1fb6e7ed54b2af7917a1f64736f6c63430008040033",
  "linkReferences": {},
  "deployedLinkReferences": {}
}